{
  "contractName": "Lottery",
  "abi": [
    {
      "constant": true,
      "inputs": [],
      "name": "manager",
      "outputs": [
        {
          "name": "",
          "type": "address"
        }
      ],
      "payable": false,
      "stateMutability": "view",
      "type": "function"
    },
    {
      "constant": true,
      "inputs": [
        {
          "name": "",
          "type": "uint256"
        }
      ],
      "name": "players",
      "outputs": [
        {
          "name": "",
          "type": "address"
        }
      ],
      "payable": false,
      "stateMutability": "view",
      "type": "function"
    },
    {
      "inputs": [],
      "payable": false,
      "stateMutability": "nonpayable",
      "type": "constructor"
    },
    {
      "constant": false,
      "inputs": [],
      "name": "enter",
      "outputs": [],
      "payable": true,
      "stateMutability": "payable",
      "type": "function"
    },
    {
      "constant": false,
      "inputs": [],
      "name": "pickWinner",
      "outputs": [],
      "payable": true,
      "stateMutability": "payable",
      "type": "function"
    },
    {
      "constant": true,
      "inputs": [],
      "name": "getPlayers",
      "outputs": [
        {
          "name": "",
          "type": "address[]"
        }
      ],
      "payable": false,
      "stateMutability": "view",
      "type": "function"
    },
    {
      "constant": true,
      "inputs": [],
      "name": "SCBalance",
      "outputs": [
        {
          "name": "",
          "type": "uint256"
        }
      ],
      "payable": false,
      "stateMutability": "view",
      "type": "function"
    }
  ],
  "bytecode": "0x608060405234801561001057600080fd5b50336000806101000a81548173ffffffffffffffffffffffffffffffffffffffff021916908373ffffffffffffffffffffffffffffffffffffffff16021790555061064e806100606000396000f3fe6080604052600436106100555760003560e01c8063481c6a751461005a5780635d495aea146100b15780638b5b9ccc146100bb578063a09c96bf14610127578063e97dcb6214610152578063f71d96cb1461015c575b600080fd5b34801561006657600080fd5b5061006f6101d7565b604051808273ffffffffffffffffffffffffffffffffffffffff1673ffffffffffffffffffffffffffffffffffffffff16815260200191505060405180910390f35b6100b96101fc565b005b3480156100c757600080fd5b506100d061034e565b6040518080602001828103825283818151815260200191508051906020019060200280838360005b838110156101135780820151818401526020810190506100f8565b505050509050019250505060405180910390f35b34801561013357600080fd5b5061013c6103dc565b6040518082815260200191505060405180910390f35b61015a6103fb565b005b34801561016857600080fd5b506101956004803603602081101561017f57600080fd5b8101908080359060200190929190505050610477565b604051808273ffffffffffffffffffffffffffffffffffffffff1673ffffffffffffffffffffffffffffffffffffffff16815260200191505060405180910390f35b6000809054906101000a900473ffffffffffffffffffffffffffffffffffffffff1681565b6000809054906101000a900473ffffffffffffffffffffffffffffffffffffffff1673ffffffffffffffffffffffffffffffffffffffff163373ffffffffffffffffffffffffffffffffffffffff161461025557600080fd5b60006001805490506102656104b3565b8161026c57fe5b0690506001818154811061027c57fe5b9060005260206000200160009054906101000a900473ffffffffffffffffffffffffffffffffffffffff1673ffffffffffffffffffffffffffffffffffffffff166108fc3073ffffffffffffffffffffffffffffffffffffffff16319081150290604051600060405180830381858888f19350505050158015610303573d6000803e3d6000fd5b5060006040519080825280602002602001820160405280156103345781602001602082028038833980820191505090505b506001908051906020019061034a929190610555565b5050565b606060018054806020026020016040519081016040528092919081815260200182805480156103d257602002820191906000526020600020905b8160009054906101000a900473ffffffffffffffffffffffffffffffffffffffff1673ffffffffffffffffffffffffffffffffffffffff1681526020019060010190808311610388575b5050505050905090565b60003073ffffffffffffffffffffffffffffffffffffffff1631905090565b67016345785d8a0000341161040f57600080fd5b60013390806001815401808255809150509060018203906000526020600020016000909192909190916101000a81548173ffffffffffffffffffffffffffffffffffffffff021916908373ffffffffffffffffffffffffffffffffffffffff16021790555050565b6001818154811061048457fe5b906000526020600020016000915054906101000a900473ffffffffffffffffffffffffffffffffffffffff1681565b60004442600160405160200180848152602001838152602001828054801561053057602002820191906000526020600020905b8160009054906101000a900473ffffffffffffffffffffffffffffffffffffffff1673ffffffffffffffffffffffffffffffffffffffff16815260200190600101908083116104e6575b505093505050506040516020818303038152906040528051906020012060001c905090565b8280548282559060005260206000209081019282156105ce579160200282015b828111156105cd5782518260006101000a81548173ffffffffffffffffffffffffffffffffffffffff021916908373ffffffffffffffffffffffffffffffffffffffff16021790555091602001919060010190610575565b5b5090506105db91906105df565b5090565b61061f91905b8082111561061b57600081816101000a81549073ffffffffffffffffffffffffffffffffffffffff0219169055506001016105e5565b5090565b9056fea165627a7a72305820aeb892a47cfe70503d08b5742f4e0630d128b72ea8c6dda133b7846b7f7294ca0029",
  "source": "pragma solidity ^0.5.1;\r\n\r\ncontract Lottery{\r\n    \r\n    address public manager;\r\n    address payable[] public players;\r\n    \r\n    constructor() public {\r\n        manager = msg.sender;\r\n    }\r\n    \r\n    \r\n    function enter() public payable{ \r\n        require(msg.value > 0.1 ether);\r\n        players.push(msg.sender);\r\n    }\r\n\r\n    function random() private view returns(uint) {\r\n        return uint(keccak256(abi.encodePacked(block.difficulty,now,players)));\r\n    }\r\n\r\n    function pickWinner() public restricted payable{\r\n        uint index = random() % players.length;\r\n        players[index].transfer(address(this).balance);\r\n        players = new address payable[](0);\r\n    }\r\n    \r\n    modifier restricted(){\r\n        require(msg.sender == manager);\r\n        _;\r\n    }\r\n    \r\n    function getPlayers() public view returns(address payable[] memory){\r\n        return players;\r\n    }\r\n    \r\n    function SCBalance() public view returns(uint){\r\n        return address(this).balance;\r\n    }\r\n}",
  "sourcePath": "D:/Blockchain Example/Dapps/LotteryDapp/contracts/Lottery.sol",
  "compiler": {
    "name": "solc",
    "version": "0.5.8+commit.23d335f2.Emscripten.clang"
  },
  "schemaVersion": "3.0.11",
  "updatedAt": "2019-06-19T10:39:47.955Z",
  "devdoc": {
    "methods": {}
  },
  "userdoc": {
    "methods": {}
  }
}